:020000040800F2
:10000000000002202D0A00083D09000845090008EB
:100010004D090008550900085D09000800000000AE
:10002000000000000000000000000000650900085A
:100030007309000800000000810900088F0900080A
:100040007D0A00087D0A00087D0A00087D0A000874
:100050007D0A00087D0A00087D0A00087D0A000864
:100060007D0A00087D0A00087D0A00087D0A000854
:100070007D0A00087D0A00087D0A00087D0A000844
:100080007D0A00087D0A00087D0A00087D0A000834
:100090007D0A00087D0A00087D0A00087D0A000824
:1000A0007D0A00087D0A00087D0A00087D0A000814
:1000B0007D0A00087D0A00087D0A00087D0A000804
:1000C0007D0A00087D0A00087D0A00087D0A0008F4
:1000D0007D0A00087D0A00087D0A00087D0A0008E4
:1000E0007D0A00087D0A00087D0A00087D0A0008D4
:1000F0007D0A00087D0A00087D0A00087D0A0008C4
:100100007D0A00087D0A00087D0A00087D0A0008B3
:100110007D0A00087D0A00087D0A00087D0A0008A3
:100120007D0A00087D0A00087D0A00087D0A000893
:100130007D0A00087D0A00087D0A00087D0A000883
:100140007D0A00087D0A00087D0A00087D0A000873
:100150007D0A00087D0A00087D0A00087D0A000863
:100160007D0A00087D0A00087D0A00087D0A000853
:100170007D0A00087D0A00087D0A000800000000D2
:080180007D0A00087D0A000859
:1001900010B5054C237833B9044B13B10448AFF3C1
:1001A00000800123237010BD5C00002000000000CF
:1001B0005037000808B5034B1BB103490348AFF3A0
:1001C000008008BD000000006000002050370008DB
:1001D000034613F8012B002AFBD1181A0138704787
:1001E00001F0FF01102A2BDB10F0070F08D010F8E8
:1001F000013B013A8B422DD010F0070F42B3F6D1EC
:10020000F0B441EA012141EA014122F007047FF004
:1002100000070023F0E80256083C85EA010586EA5B
:10022000010685FA47F5A3FA87F586FA47F6A5FA97
:1002300087F68EB9EED1F0BC01F0FF0102F00702A3
:1002400032B110F8013B013A83EA010313B1F8D14E
:100250000020704701387047002D06BF354603382F
:10026000073815F0010F07D1013015F4807F02BF68
:10027000013015F4C03F0130F0BC0138704700BFB9
:1002800053B94AB9002908BF00281CBF4FF0FF31FD
:100290004FF0FF3000F06AB9ADF1080C6DE904CE03
:1002A00000F006F8DDF804E0DDE9022304B0704751
:1002B0002DE9F047089D0C46002B4ED194468C4505
:1002C0008646B2FA82F262D94AB1C2F12003914065
:1002D00020FA03F30CFA02FC194300FA02FE4FEA7B
:1002E0001C471FFA8CF6B1FBF7F44FEA1E4307FBDD
:1002F000141143EA014304FB06F199420AD91CEBAD
:10030000030304F1FF3080F01281994240F20F8123
:10031000023C6344591A1FFA8EF3B1FBF7F007FB56
:10032000101143EA014300FB06F69E420AD91CEB7A
:10033000030300F1FF3180F0FC809E4240F2F9801F
:10034000634402389B1B40EA044000211DB1D340A6
:100350000022C5E90032BDE8F0878B4205D90DB116
:10036000C5E9000100210846F5E7B3FA83F1002949
:1003700046D1A34202D39042C0F0F080861A64EBCB
:1003800003030120002DE6D0C5E90063E3E7002A5E
:1003900040F09080A1EB0C044FEA1C481FFA8CF748
:1003A0000121B4FBF8F64FEA1E4308FB164443EA6A
:1003B000044307FB06F0984208D91CEB030306F13F
:1003C000FF3402D2984200F2CD8026461C1A1FFA52
:1003D0008EF3B4FBF8F008FB104443EA044300FB3F
:1003E00007F79F4208D91CEB030300F1FF3402D248
:1003F0009F4200F2B0802046DB1B40EA0640A5E7A2
:10040000C1F120068B4022FA06F71F4320FA06FCB2
:1004100004FA01F343EA0C03F44000FA01F8380C43
:100420004FEA1349B4FBF0FE1FFA87FC00FB1E44A1
:1004300049EA04440EFB0CF9A14502FA01F20AD97B
:100440003C190EF1FF3A80F08480A14540F2818092
:10045000AEF1020E3C44A4EB09041FFA83F9B4FB8D
:10046000F0F300FB134449EA044403FB0CFCA445ED
:1004700007D93C1903F1FF3067D2A44565D9023B87
:100480003C4443EA0E40A0FB0293A4EB0C049C42C4
:10049000CE469C4651D34ED055B1B8EB0E0364EB1B
:1004A0000C0404FA06F6CB401E43CC40C5E90064B8
:1004B000002150E7C2F1200320FA03F10CFA02FCFC
:1004C00024FA03F394400C434FEA1C4800FA02FE5E
:1004D0001FFA8CF7B3FBF8F008FB1031230C43EA4A
:1004E000014300FB07F1994208D91CEB030300F11B
:1004F000FF362CD299422AD9023863445B1AA4B23F
:10050000B3FBF8F108FB113344EA034401FB07F3A2
:10051000A34208D91CEB040401F1FF3613D2A34215
:1005200011D902396444E41A41EA004139E704462A
:10053000F0E6084606E7C845AED2B9EB020E63EB1B
:10054000070C0138A8E73146EDE7034699E7304646
:10055000D4E7D6467FE7634402384DE70646234694
:1005600008460FE7023E634430E700BF704700BF14
:1005700080B586B004AF0023FB714FF0FF330293C8
:1005800001230193FB1D009301237522D021044810
:1005900000F0D2FEFB7918460837BD4680BD00BF8B
:1005A0007800002080B58EB000AF00F069FA00F04E
:1005B00029F800F0DDF800F083F800F0AFF8FFF75D
:1005C000D7FF034687F8373097F837203B1D0B4994
:1005D000184602F01DFC3B1D1846FFF7F9FD0346C7
:1005E0009AB2391D4FF0FF33054802F055F84FF429
:1005F0007A7000F0B7FA00BFE1E700BF6837000883
:10060000CC00002080B594B000AF07F12003302269
:100610000021184602F01CFC07F10C0300221A60AE
:100620005A609A60DA601A610023BB60224B1B6C2F
:10063000214A43F0805313641F4B1B6C03F080531B
:10064000BB60BB6800237B601C4B1B681B4A43F4E8
:1006500080431360194B1B6803F480437B607B6805
:1006600002233B620123FB6210233B630023BB6335
:1006700007F12003184601F067FB0346002B01D069
:1006800000F09EF80F23FB6000233B6100237B6199
:100690000023BB610023FB6107F10C030021184616
:1006A00001F0CAFD0346002B01D000F089F800BF1D
:1006B0005037BD4680BD00BF00380240007000408A
:1006C00080B500AF124B134A1A60114B124A5A60A0
:1006D0000F4B00229A600E4B0022DA600C4B4FF455
:1006E00080421A610A4B00225A61094B00229A612A
:1006F000074B0022DA61064B00221A62044800F020
:10070000D7FC0346002B01D000F05AF800BF80BD93
:100710007800002000540040801A060080B500AF29
:10072000114B124A1A60104B4FF4E1325A600E4BD3
:1007300000229A600C4B0022DA600B4B00221A61F7
:10074000094B0C225A61084B00229A61064B002289
:10075000DA61054801F050FF0346002B01D000F09C
:100760002FF800BF80BD00BFCC0000200044004037
:1007700080B483B000AF00237B60104B1B6B0F4A2B
:1007800043F0010313630D4B1B6B03F001037B600C
:100790007B6800233B60094B1B6B084A43F0020354
:1007A0001363064B1B6B03F002033B603B6800BF07
:1007B0000C37BD465DF8047B704700BF003802402F
:1007C00080B400AF72B600BF00BFFDE780B483B055
:1007D00000AF00237B60104B5B6C0F4A43F48043F7
:1007E00053640D4B5B6C03F480437B607B68002398
:1007F0003B60094B1B6C084A43F080531364064B63
:100800001B6C03F080533B603B6800BF0C37BD4658
:100810005DF8047B704700BF0038024080B58AB0A5
:1008200000AF786007F1140300221A605A609A60E2
:10083000DA601A617B681B68194A93422CD1002345
:100840003B61184B1B6B174A43F002031363154BB4
:100850001B6B03F002033B613B694FF440737B6108
:100860001223BB610023FB6103233B6204237B62F1
:1008700007F1140319460C4800F07EFA0023FB60D0
:10088000084B1B6C074A43F400131364054B1B6CA5
:1008900003F40013FB60FB6800BF2837BD4680BD32
:1008A00000540040003802400004024080B58AB085
:1008B00000AF786007F1140300221A605A609A6052
:1008C000DA601A617B681B68194A93422BD10023B6
:1008D0003B61184B1B6C174A43F400331364154BF0
:1008E0001B6C03F400333B613B690023FB60114B3D
:1008F0001B6B104A43F0010313630E4B1B6B03F099
:100900000103FB60FB680C237B610223BB610023B6
:10091000FB6103233B6207237B6207F11403194643
:10092000054800F029FA00BF2837BD4680BD00BF4A
:1009300000440040003802400000024080B400AF94
:1009400000BFFDE780B400AF00BFFDE780B400AF9B
:1009500000BFFDE780B400AF00BFFDE780B400AF8B
:1009600000BFFDE780B400AF00BFBD465DF8047B6B
:10097000704780B400AF00BFBD465DF8047B704790
:1009800080B400AF00BFBD465DF8047B704780B502
:1009900000AF00F0C7F800BF80BD000080B586B092
:1009A00000AF7860144A154BD31A7B617B693B61B9
:1009B000134B1B68002B02D1114B124A1A60104BCB
:1009C0001A687B6813443A699A4207D202F048FADF
:1009D00003460C221A604FF0FF3309E0084B1B68F6
:1009E000FB60074B1A687B681344054A1360FB6879
:1009F00018461837BD4680BD0000022000040000E4
:100A0000140100206802002080B400AF064BD3F828
:100A10008830054A43F47003C2F8883000BFBD46F1
:100A20005DF8047B704700BF00ED00E0DFF834D0D4
:100A3000FFF7EAFF0C480D490D4A002302E0D458A5
:100A4000C4500433C4188C42F9D30A4A0A4C002318
:100A500001E013600432A242FBD302F007FAFFF771
:100A6000A1FD704700000220000000205C00002073
:100A7000E03700085C00002064020020FEE7000070
:100A800080B500AF0E4B1B680D4A43F40073136032
:100A90000B4B1B680A4A43F480631360084B1B68C6
:100AA000074A43F480731360032000F031F90F20EC
:100AB00000F008F8FFF78AFE0023184680BD00BF4B
:100AC000003C024080B582B000AF7860124B1A68DB
:100AD000124B1B7819464FF47A73B3FBF1F3B2FB58
:100AE000F3F3184600F03BF90346002B01D0012335
:100AF0000EE07B680F2B0AD8002279684FF0FF3098
:100B000000F011F9064A7B681360002300E001231E
:100B100018460837BD4680BD0000002008000020B0
:100B20000400002080B400AF064B1B781A46064B29
:100B30001B681344044A136000BFBD465DF8047B84
:100B4000704700BF080000201801002080B400AFEB
:100B5000034B1B681846BD465DF8047B704700BF19
:100B60001801002080B584B000AF7860FFF7EEFF79
:100B7000B8607B68FB60FB68B3F1FF3F05D00A4BB0
:100B80001B781A46FB681344FB6000BFFFF7DEFFCB
:100B90000246BB68D31AFA689A42F7D800BF00BF72
:100BA0001037BD4680BD00BF0800002080B485B06E
:100BB00000AF78607B6803F00703FB600C4BDB68D9
:100BC000BB60BA684FF6FF031340BB60FB681A02B4
:100BD000BB68134343F0BF6343F40033BB60044A74
:100BE000BB68D36000BF1437BD465DF8047B704717
:100BF00000ED00E080B400AF044BDB681B0A03F09B
:100C000007031846BD465DF8047B704700ED00E021
:100C100080B483B000AF03463960FB7197F90730A9
:100C2000002B0ADB3B68DAB20C4997F90730120156
:100C3000D2B20B4483F800230AE03B68DAB20849D9
:100C4000FB7903F00F03043B1201D2B20B441A7676
:100C500000BF0C37BD465DF8047B704700E100E043
:100C600000ED00E080B489B000AFF860B9607A6050
:100C7000FB6803F00703FB61FB69C3F10703042B67
:100C800028BF0423BB61FB690433062B02D9FB692F
:100C9000033B00E000237B614FF0FF32BB6902FAA7
:100CA00003F3DA43BB681A407B699A404FF0FF3187
:100CB0007B6901FA03F3D9437B680B401343184661
:100CC0002437BD465DF8047B7047000080B582B0D4
:100CD00000AF78607B68013BB3F1807F01D30123D3
:100CE0000FE00A4A7B68013B53600F214FF0FF3051
:100CF000FFF78EFF054B00229A60044B07221A6013
:100D0000002318460837BD4680BD00BF10E000E054
:100D100080B582B000AF78607868FFF747FF00BF0A
:100D20000837BD4680BD80B586B000AF0346B960C8
:100D30007A60FB7300237B61FFF75CFF78617A6860
:100D4000B9687869FFF78EFF024697F90F301146B0
:100D50001846FFF75DFF00BF1837BD4680BD80B560
:100D600082B000AF78607868FFF7B0FF034618469E
:100D70000837BD4680BD000080B489B000AF786000
:100D8000396000237B6100233B610023BB610023AA
:100D9000FB616BE10122FB6902FA03F37B613B68B3
:100DA0001B687A6913403B613A697B699A4240F05B
:100DB0005A813B685B6803F00303012B05D03B6855
:100DC0005B6803F00303022B30D17B689B68BB6137
:100DD000FB695B00032202FA03F3DB43BA691340A9
:100DE000BB613B68DA68FB695B0002FA03F3BA692E
:100DF0001343BB617B68BA699A607B685B68BB61BF
:100E00000122FB6902FA03F3DB43BA691340BB61B9
:100E10003B685B681B0903F00102FB6902FA03F3FC
:100E2000BA691343BB617B68BA695A603B685B6807
:100E300003F00303032B17D07B68DB68BB61FB69FE
:100E40005B00032202FA03F3DB43BA691340BB6180
:100E50003B689A68FB695B0002FA03F3BA691343C3
:100E6000BB617B68BA69DA603B685B6803F00303C7
:100E7000022B23D1FB69DA087B68083253F8223051
:100E8000BB61FB6903F007039B000F2202FA03F327
:100E9000DB43BA691340BB613B681A69FB6903F025
:100EA00007039B0002FA03F3BA691343BB61FB69B2
:100EB000DA087B680832B96943F822107B681B683E
:100EC000BB61FB695B00032202FA03F3DB43BA69EF
:100ED0001340BB613B685B6803F00302FB695B0086
:100EE00002FA03F3BA691343BB617B68BA691A60FB
:100EF0003B685B6803F44033002B00F0B4800023B0
:100F0000FB60604B5B6C5F4A43F4804353645D4B12
:100F10005B6C03F48043FB60FB685B4AFB699B08E6
:100F2000023352F82330BB61FB6903F003039B00DB
:100F30000F2202FA03F3DB43BA691340BB617B68FB
:100F4000524A93422BD07B68514A934225D07B680A
:100F5000504A93421FD07B684F4A934219D07B6816
:100F60004E4A934213D07B684D4A93420DD07B6822
:100F70004C4A934207D07B684B4A934201D10723E6
:100F80000EE008230CE006230AE0052308E0042312
:100F900006E0032304E0022302E0012300E0002333
:100FA000FA6902F0030292009340BA691343BB61ED
:100FB0003549FB699B080233BA6941F823203B4B52
:100FC0009B68BB613B69DB43BA691340BB613B680B
:100FD0005B6803F48013002B03D0BA693B691343A9
:100FE000BB61324ABB699360304BDB68BB613B69D4
:100FF000DB43BA691340BB613B685B6803F40013D1
:10100000002B03D0BA693B691343BB61274ABB6914
:10101000D360264B5B68BB613B69DB43BA69134015
:10102000BB613B685B6803F40033002B03D0BA69F3
:101030003B691343BB611D4ABB6953601B4B1B6873
:10104000BB613B69DB43BA691340BB613B685B68CA
:1010500003F48033002B03D0BA693B691343BB61AF
:10106000124ABB691360FB690133FB61FB690F2BFB
:101070007FF690AE00BF00BF2437BD465DF8047B0D
:10108000704700BF003802400038014000000240B5
:101090000004024000080240000C02400010024020
:1010A0000014024000180240001C0240003C0140B5
:1010B00080B584B000AF78607B68002B01D101233C
:1010C0002BE17B6893F83D30DBB2002B06D17B68C7
:1010D000002283F83C207868FFF7A0FB7B6824227D
:1010E00083F83D207B681B681A687B681B6822F0C8
:1010F00001021A607B681B681A687B681B6842F4EF
:1011000000421A607B681B681A687B681B6822F4BF
:1011100000421A6001F048FAF8607B685B68814A17
:10112000934207D8FB68804A934294BF012300236F
:10113000DBB206E0FB687D4A934294BF01230023A3
:10114000DBB2002B01D00123E7E0FB68784AA2FB69
:1011500003239B0CBB607B681B685B6823F03F012B
:101160007B681B68BA680A435A607B681B681B6A05
:1011700023F03F017B685B686A4A934202D8BB68F0
:10118000013309E0BB684FF4967202FB03F3694A2E
:10119000A2FB03239B0901337A6812680B43136295
:1011A0007B681B68DB6923F44F4222F0FF027B68F7
:1011B0005B685C498B4219D8FB68591E7B685B6889
:1011C0005B00B1FBF3F3591C40F6FC730B40002BA2
:1011D0000AD0FB68591E7B685B685B00B1FBF3F3C8
:1011E0000133C3F30B0351E004234FE07B689B689A
:1011F000002B11D1FB68581E7B6859680B465B00B9
:101200000B44B0FBF3F30133C3F30B03002B0CBF10
:1012100001230023DBB212E0FB68581E7B6859688B
:101220000B469B000B4499000B44B0FBF3F30133D6
:10123000C3F30B03002B0CBF01230023DBB2002BF5
:1012400001D0012322E07B689B68002B0ED1FB6854
:10125000581E7B6859680B465B000B44B0FBF3F3E8
:101260000133C3F30B0343F400430FE0FB68581E44
:101270007B6859680B469B000B4499000B44B0FBFC
:10128000F3F30133C3F30B0343F440437968096874
:101290001343CB617B681B681B6823F0C0017B682C
:1012A000DA697B681B6A1A437B681B680A431A6009
:1012B0007B681B689B6823F4034323F0FF037A6871
:1012C00011697A68D26811437A6812680B43936097
:1012D0007B681B68DB6823F0FF017B685A697B68C9
:1012E0009B691A437B681B680A43DA607B681B684A
:1012F0001A687B681B6842F001021A607B68002252
:101300001A647B68202283F83D207B6800221A63E0
:101310007B68002283F83E20002318461037BD4624
:1013200080BD00BFA08601007F841E00FF083D0035
:1013300083DE1B43D34D621080B58CB002AFF860E2
:10134000084611461A4603467B810B463B811346ED
:10135000FB80FFF7FBFB7862FB6893F83D30DBB264
:10136000202B40F014827B6A0093192301227B49D1
:10137000F86800F0FBFA0346002B01D0022307E2D5
:10138000FB6893F83C30012B01D1022300E2FB689B
:10139000012283F83C20FB681B681B6803F00103F3
:1013A000012B07D0FB681B681A68FB681B6842F0BA
:1013B00001021A60FB681B681A68FB681B6822F44C
:1013C00000621A60FB68222283F83D20FB684022FD
:1013D00083F83E20FB6800221A64FB683A6B5A626D
:1013E000FB68BA8E5A85FB685B8D9AB2FB681A85DA
:1013F000FB685B4ADA62F8883A8979897B6A0193EB
:10140000BB6B00930346F86800F0C8F90346002B55
:1014100001D00123BCE1FB681B8D002B13D10023FD
:101420003B62FB681B685B693B62FB681B689B69EE
:101430003B623B6AFB681B681A68FB681B6842F4E6
:1014400000721A6090E1FB681B8D012B1BD1FB68B9
:101450001B681A68FB681B6822F480621A6000230C
:10146000FB61FB681B685B69FB61FB681B689B6930
:10147000FB61FB69FB681B681A68FB681B6842F428
:1014800000721A6070E1FB681B8D022B1BD1FB6898
:101490001B681A68FB681B6822F480621A60FB688C
:1014A0001B681A68FB681B6842F400621A6000231C
:1014B000BB61FB681B685B69BB61FB681B689B6960
:1014C000BB61BB6950E100237B61FB681B685B6902
:1014D0007B61FB681B689B697B617B6944E1FB68FE
:1014E0001B8D032B00F2F180FB681B8D012B23D198
:1014F0007A6AB96BF86800F09BFB0346002B01D0B9
:10150000012345E1FB681B681A69FB685B6AD2B27C
:101510001A70FB685B6A5A1CFB685A62FB681B8D79
:10152000013B9AB2FB681A85FB685B8D9BB2013B5D
:101530009AB2FB685A8517E1FB681B8D022B4ED1CE
:101540007B6A0093BB6B00220649F86800F00EFA34
:101550000346002B08D001231AE100BF020010004F
:101560000000FFFF04000100FB681B681A68FB68AD
:101570001B6842F400721A60FB681B681A69FB68FA
:101580005B6AD2B21A70FB685B6A5A1CFB685A62CB
:10159000FB681B8D013B9AB2FB681A85FB685B8D6B
:1015A0009BB2013B9AB2FB685A85FB681B681A69BB
:1015B000FB685B6AD2B21A70FB685B6A5A1CFB68F4
:1015C0005A62FB681B8D013B9AB2FB681A85FB6867
:1015D0005B8D9BB2013B9AB2FB685A85C4E07B6A83
:1015E0000093BB6B00226C49F86800F0BFF903461A
:1015F000002B01D00123CBE0FB681B681A68FB6855
:101600001B6822F480621A60FB681B681A69FB6819
:101610005B6AD2B21A70FB685B6A5A1CFB685A623A
:10162000FB681B8D013B9AB2FB681A85FB685B8DDA
:101630009BB2013B9AB2FB685A857B6A0093BB6BF5
:1016400000225549F86800F091F90346002B01D0BB
:1016500001239DE0FB681B681A68FB681B6842F465
:1016600000721A60FB681B681A69FB685B6AD2B279
:101670001A70FB685B6A5A1CFB685A62FB681B8D18
:10168000013B9AB2FB681A85FB685B8D9BB2013BFC
:101690009AB2FB685A85FB681B681A69FB685B6A2B
:1016A000D2B21A70FB685B6A5A1CFB685A62FB680C
:1016B0001B8D013B9AB2FB681A85FB685B8D9BB260
:1016C000013B9AB2FB685A854EE07A6AB96BF868BA
:1016D00000F0AEFA0346002B01D0012358E0FB686E
:1016E0001B681A69FB685B6AD2B21A70FB685B6A96
:1016F0005A1CFB685A62FB681B8D013B9AB2FB685F
:101700001A85FB685B8D9BB2013B9AB2FB685A85D8
:10171000FB681B685B6903F00403042B24D1FB689E
:101720001B8D032B07D1FB681B681A68FB681B68BD
:1017300022F480621A60FB681B681A69FB685B6AA6
:10174000D2B21A70FB685B6A5A1CFB685A62FB686B
:101750001B8D013B9AB2FB681A85FB685B8D9BB2BF
:10176000013B9AB2FB685A85FB681B8D002B7FF406
:10177000B6AEFB68202283F83D20FB68002283F888
:101780003E20FB68002283F83C20002300E0022377
:1017900018462837BD4680BD0400010080B588B0DA
:1017A00002AFF860084611461A4603467B810B4695
:1017B0003B811346FB80FB681B681A68FB681B684B
:1017C00042F480621A60FB681B681A68FB681B6839
:1017D00042F480721A607B6A00933B6A00224FF0E9
:1017E0000111F86800F0C2F80346002B0DD0FB6829
:1017F0001B681B6803F48073B3F5807F03D1FB681B
:101800004FF400721A640323AAE07B89DBB21A4604
:10181000FB681B6802F0FE021A617B6A3A6A524951
:10182000F86800F01DF90346002B01D0012397E072
:1018300000237B61FB681B685B697B61FB681B683D
:101840009B697B617B697A6A396AF86800F0A8F95C
:101850000346002B0DD0FB681B6C042B07D1FB68E3
:101860001B681A68FB681B6842F400721A60012347
:1018700076E0FB88012B05D13B89DAB2FB681B6857
:101880001A6121E03B891B0A9BB2DAB2FB681B6834
:101890001A617A6A396AF86800F082F90346002B07
:1018A0000DD0FB681B6C042B07D1FB681B681A6802
:1018B000FB681B6842F400721A60012350E03B8908
:1018C000DAB2FB681B681A617A6A396AF86800F054
:1018D00067F90346002B0DD0FB681B6C042B07D166
:1018E000FB681B681A68FB681B6842F400721A6088
:1018F000012335E0FB681B681A68FB681B6842F42B
:1019000080721A607B6A00933B6A00224FF00111DB
:10191000F86800F02BF80346002B0DD0FB681B681D
:101920001B6803F48073B3F5807F03D1FB684FF429
:1019300000721A64032313E07B89DBB243F00103D6
:10194000DAB2FB681B681A617B6A3A6A0649F86872
:1019500000F086F80346002B01D0012300E00023AD
:1019600018461837BD4680BD0200010080B584B01E
:1019700000AFF860B9603B601346FB7148E03B681C
:10198000B3F1FF3F44D0FFF7E1F80246BB69D31A39
:101990003A689A4202D33B68002B39D1BB681B0CD2
:1019A000DBB2012B0DD1FB681B685B69DA43BB68B6
:1019B00013409BB2002B0CBF01230023DBB21A465D
:1019C0000CE0FB681B689B69DA43BB6813409BB261
:1019D000002B0CBF01230023DBB21A46FB799A428D
:1019E00016D1FB6800221A63FB68202283F83D2091
:1019F000FB68002283F83E20FB681B6C43F020024A
:101A0000FB681A64FB68002283F83C20012323E072
:101A1000BB681B0CDBB2012B0DD1FB681B685B693B
:101A2000DA43BB6813409BB2002B0CBF0123002399
:101A3000DBB21A460CE0FB681B689B69DA43BB68A3
:101A400013409BB2002B0CBF01230023DBB21A46CC
:101A5000FB799A4293D0002318461037BD4680BDCB
:101A600080B584B000AFF860B9607A603B6071E027
:101A7000FB681B685B6903F48063B3F5806F23D157
:101A8000FB681B681A68FB681B6842F400721A60E6
:101A9000FB681B686FF480625A61FB6800221A635E
:101AA000FB68202283F83D20FB68002283F83E205B
:101AB000FB681B6C43F00402FB681A64FB6800229D
:101AC00083F83C20012367E07B68B3F1FF3F41D0FE
:101AD000FFF73CF802463B68D31A7A689A4202D371
:101AE0007B68002B36D1BB681B0CDBB2012B0CD101
:101AF000FB681B685B69DA43BB6813409BB2002B31
:101B000014BF01230023DBB20BE0FB681B689B6959
:101B1000DA43BB6813409BB2002B14BF01230023A0
:101B2000DBB2002B16D0FB6800221A63FB68202270
:101B300083F83D20FB68002283F83E20FB681B6C85
:101B400043F02002FB681A64FB68002283F83C2003
:101B5000012321E0BB681B0CDBB2012B0CD1FB681D
:101B60001B685B69DA43BB6813409BB2002B14BF50
:101B700001230023DBB20BE0FB681B689B69DA439F
:101B8000BB6813409BB2002B14BF01230023DBB2C0
:101B9000002B7FF46DAF002318461037BD4680BD83
:101BA00080B584B000AFF860B9607A6034E0F8685E
:101BB00000F09BF80346002B01D0012334E0BB6802
:101BC000B3F1FF3F28D0FEF7C1FF02467B68D31A6E
:101BD000BA689A4202D3BB68002B1DD1FB681B6810
:101BE0005B6903F08003802B16D0FB6800221A6328
:101BF000FB68202283F83D20FB68002283F83E200A
:101C0000FB681B6C43F02002FB681A64FB6800222F
:101C100083F83C20012307E0FB681B685B6903F045
:101C20008003802BC3D1002318461037BD4680BDEA
:101C300080B584B000AFF860B9607A6049E0FB68B5
:101C40001B685B6903F01003102B19D1FB681B683C
:101C50006FF010025A61FB6800221A63FB682022B1
:101C600083F83D20FB68002283F83E20FB681A6C55
:101C7000FB681A64FB68002283F83C20012330E0F3
:101C8000FEF764FF02467B68D31ABA689A4202D311
:101C9000BB68002B1DD1FB681B685B6903F0400328
:101CA000402B16D0FB6800221A63FB68202283F8C1
:101CB0003D20FB68002283F83E20FB681B6C43F04C
:101CC0002002FB681A64FB68002283F83C20012391
:101CD00007E0FB681B685B6903F04003402BAED153
:101CE000002318461037BD4680BD80B483B000AFD6
:101CF00078607B681B685B6903F48063B3F5806F71
:101D00001BD17B681B686FF480625A617B6800227C
:101D10001A637B68202283F83D207B68002283F8C9
:101D20003E207B681B6C43F004027B681A647B686E
:101D3000002283F83C20012300E0002318460C37E2
:101D4000BD465DF8047B704780B586B000AF786013
:101D50007B68002B01D1012367E27B681B6803F0DD
:101D60000103002B75D0884B9B6803F00C03042BF8
:101D70000CD0854B9B6803F00C03082B12D1824BCF
:101D80005B6803F48003B3F5800F0BD17E4B1B68B7
:101D900003F40033002B5BD07B685B68002B57D1CA
:101DA000012342E27B685B68B3F5803F06D1764B46
:101DB0001B68754A43F4803313601DE07B685B68E1
:101DC000B3F5A02F0CD1704B1B686F4A43F48023EE
:101DD00013606D4B1B686C4A43F4803313600BE057
:101DE000694B1B68684A23F480331360664B1B6899
:101DF000654A23F4802313607B685B68002B13D053
:101E0000FEF7A4FE386108E0FEF7A0FE02463B693B
:101E1000D31A642B01D9032307E25B4B1B6803F43D
:101E20000033002BF0D014E0FEF790FE386108E09C
:101E3000FEF78CFE02463B69D31A642B01D90323BB
:101E4000F3E1514B1B6803F40033002BF0D100E0A9
:101E500000BF7B681B6803F00203002B63D04A4B72
:101E60009B6803F00C03002B0BD0474B9B6803F0DF
:101E70000C03082B1CD1444B5B6803F48003002B3C
:101E800016D1414B1B6803F00203002B05D07B6881
:101E9000DB68012B01D00123C7E13B4B1B6823F01A
:101EA000F8027B681B69DB00374913430B603AE09B
:101EB0007B68DB68002B20D0344B01221A60FEF7D0
:101EC00045FE386108E0FEF741FE02463B69D31A41
:101ED000022B01D90323A8E12B4B1B6803F002035B
:101EE000002BF0D0284B1B6823F0F8027B681B699D
:101EF000DB00254913430B6015E0244B00221A60D8
:101F0000FEF724FE386108E0FEF720FE02463B693A
:101F1000D31A022B01D9032387E11B4B1B6803F063
:101F20000203002BF0D17B681B6803F00803002B31
:101F300036D07B685B69002B16D0154B01221A60E6
:101F4000FEF704FE386108E0FEF700FE02463B693A
:101F5000D31A022B01D9032367E10B4B5B6F03F00C
:101F60000203002BF0D01BE0094B00221A60FEF7A1
:101F7000EDFD38610EE0FEF7E9FD02463B69D31A3C
:101F8000022B07D9032350E10038024000004742EA
:101F9000800E4742884B5B6F03F00203002BEAD1AF
:101FA0007B681B6803F00403002B00F0978000237C
:101FB000FB75814B1B6C03F08053002B0FD100236A
:101FC000BB607D4B1B6C7C4A43F0805313647A4B9F
:101FD0001B6C03F08053BB60BB680123FB75774B20
:101FE0001B6803F48073002B18D1744B1B68734A71
:101FF00043F480731360FEF7A9FD386108E0FEF733
:10200000A5FD02463B69D31A022B01D903230CE13B
:102010006A4B1B6803F48073002BF0D07B689B68CD
:10202000012B06D1644B1B6F634A43F00103136716
:102030001CE07B689B68052B0CD15F4B1B6F5E4AD5
:1020400043F0040313675C4B1B6F5B4A43F00103CF
:1020500013670BE0584B1B6F574A23F001031367BC
:10206000554B1B6F544A23F0040313677B689B682E
:10207000002B15D0FEF76AFD38610AE0FEF766FD19
:1020800002463B69D31A41F28832934201D90323B5
:10209000CBE0494B1B6F03F00203002BEED014E0A2
:1020A000FEF754FD38610AE0FEF750FD02463B6939
:1020B000D31A41F28832934201D90323B5E03E4B53
:1020C0001B6F03F00203002BEED1FB7D012B05D12A
:1020D000394B1B6C384A23F0805313647B689B692F
:1020E000002B00F0A180344B9B6803F00C03082BFD
:1020F0005CD07B689B69022B41D1314B00221A6076
:10210000FEF724FD386108E0FEF720FD02463B693A
:10211000D31A022B01D9032387E0274B1B6803F056
:102120000073002BF0D17B68DA697B681B6A1A4365
:102130007B685B6A9B011A437B689B6A5B08013B77
:102140001B041A437B68DB6A1B061B4913434B6065
:102150001B4B01221A60FEF7F9FC386108E0FEF71C
:10216000F5FC02463B69D31A022B01D903235CE03C
:10217000114B1B6803F00073002BF0D054E0104BA0
:1021800000221A60FEF7E2FC386108E0FEF7DEFC90
:1021900002463B69D31A022B01D9032345E0064BC3
:1021A0001B6803F00073002BF0D13DE07B689B6956
:1021B000012B07D1012338E00038024000700040B5
:1021C000600047421B4B5B68FB607B689B69012B8F
:1021D00028D0FB6803F480027B68DB699A4221D136
:1021E000FB6803F03F027B681B6A9A421AD1FA68C7
:1021F00047F6C07313407A68526A9201934211D134
:10220000FB6803F440327B689B6A5B08013B1B045C
:102210009A4207D1FB6803F070627B68DB6A1B0699
:102220009A4201D0012300E0002318461837BD462A
:1022300080BD00BF0038024080B584B000AF786038
:1022400039607B68002B01D10123CCE0684B1B680F
:1022500003F007033A689A420CD9654B3A68D2B248
:102260001A70634B1B6803F007033A689A4201D067
:102270000123B8E07B681B6803F00203002B20D029
:102280007B681B6803F00403002B05D0594B9B6847
:10229000584A43F4E05393607B681B6803F00803DB
:1022A000002B05D0534B9B68524A43F46043936024
:1022B000504B9B6823F0F0027B689B684D491343A9
:1022C0008B607B681B6803F00103002B44D07B68A4
:1022D0005B68012B07D1474B1B6803F40033002BCD
:1022E00019D101237FE07B685B68022B03D07B68F8
:1022F0005B68032B07D13F4B1B6803F00073002B77
:1023000009D101236FE03B4B1B6803F00203002B54
:1023100001D1012367E0374B9B6823F003027B6800
:102320005B68344913438B60FEF710FCF8600AE0E9
:10233000FEF70CFC0246FB68D31A41F28832934246
:1023400001D903234FE02B4B9B6803F00C027B6801
:102350005B689B009A42EBD1254B1B6803F0070397
:102360003A689A420CD2224B3A68D2B21A70204B89
:102370001B6803F007033A689A4201D0012332E058
:102380007B681B6803F00403002B08D0194B9B6883
:1023900023F4E0527B68DB68164913438B607B684B
:1023A0001B6803F00803002B09D0124B9B6823F431
:1023B00060427B681B69DB000E4913438B6000F0B1
:1023C00021F802460B4B9B681B0903F00F030A49D7
:1023D000CB5C22FA03F3094A1360094B1B681846C9
:1023E000FEF770FB002318461037BD4680BD00BFC6
:1023F000003C024000380240843700080000002002
:10240000040000202DE9B04F90B000AF00237B63A3
:102410000023FB6300233B630023BB63594B9B6892
:1024200003F00C03082B0DD0082B00F2A180002B29
:1024300002D0042B03D09BE0534BBB639BE0534B78
:10244000BB6398E04F4B5B6803F03F037B634D4BEE
:102450005B6803F48003002B28D04A4B5B689B0920
:1024600000223B627A623B6AC3F308000021474BBB
:1024700003FB01F2002300FB03F31344434AA0FBD8
:102480000212FA620A46BA62FA6A1344FB627B6B72
:102490000022BB61FA61D7E90623D7E90A01FDF7FB
:1024A000EFFE02460B461346FB6353E0354B5B6879
:1024B0009B0900223B617A613B69C3F3080A4FF034
:1024C000000B52465B464FF000004FF000015901EF
:1024D00041EAD261500102460B46B2EB0A0863EBB7
:1024E0000B094FF000024FF000034FEA891343EA53
:1024F00098634FEA8812B2EB080463EB09054FF0CA
:1025000000024FF00003EB0043EA5473E20014466C
:102510001D4614EB0A033B6045EB0B037B604FF059
:1025200000024FF00003D7E9004529468B022146FF
:1025300043EA915321468A02104619467B6B0022DA
:10254000BB60FA60D7E90223FDF79AFE02460B460C
:102550001346FB630B4B5B681B0C03F00303013357
:102560005B003B63FA6B3B6BB2FBF3F3BB6302E0D4
:10257000054BBB6300BFBB6B18464037BD46BDE88B
:10258000B08F00BF003802400024F40040787D0185
:1025900080B400AF034B1B681846BD465DF8047B52
:1025A000704700BF0000002080B500AFFFF7F0FFCC
:1025B0000246054B9B689B0A03F007030349CB5C6B
:1025C00022FA03F3184680BD003802409437000811
:1025D00080B500AFFFF7DCFF0246054B9B685B0B45
:1025E00003F007030349CB5C22FA03F3184680BDCE
:1025F000003802409437000880B582B000AF7860A0
:102600007B68002B01D1012342E07B6893F84130C5
:10261000DBB2002B06D17B68002283F8402078686B
:10262000FEF744F97B68242283F841207B681B680D
:10263000DA687B681B6822F40052DA60786800F080
:1026400073F97B681B681A697B681B6822F49042E7
:102650001A617B681B685A697B681B6822F02A0232
:102660005A617B681B68DA687B681B6842F4005219
:10267000DA607B6800225A647B68202283F841205C
:102680007B68202283F842207B6800225A63002363
:1026900018460837BD4680BD80B58AB002AFF860E5
:1026A000B9603B601346FB8000237B61FB6893F8B5
:1026B0004130DBB2202B75D1BB68002B02D0FB88E8
:1026C000002B01D101236EE0FB6800225A64FB68F5
:1026D000212283F84120FEF739FA7861FB68FA88F5
:1026E0009A84FB68FA88DA84FB689B68B3F5805F9C
:1026F00008D1FB681B69002B04D10023FB61BB6878
:10270000BB6103E0BB68FB610023BB612EE03B685B
:1027100000937B6900228021F86800F048F80346A6
:10272000002B05D0FB68202283F8412003233AE0E8
:10273000FB69002B0BD1BB691B881A46FB681B6821
:10274000C2F308025A60BB690233BB6107E0FB6950
:102750001A78FB681B685A60FB690133FB61FB68F0
:10276000DB8C9BB2013B9AB2FB68DA84FB68DB8CA2
:102770009BB2002BCBD13B6800937B6900224021A8
:10278000F86800F014F80346002B05D0FB682022FF
:1027900083F84120032306E0FB68202283F84120D0
:1027A000002300E0022318462037BD4680BD80B5D7
:1027B00086B000AFF860B9603B601346FB713BE048
:1027C0003B6AB3F1FF3F37D0FEF7C0F902463B68E2
:1027D000D31A3A6A9A4202D33B6A002B01D10323EF
:1027E0003AE0FB681B68DB6803F00403002B23D08E
:1027F000BB68802B20D0BB68402B1DD0FB681B68BA
:102800001B6803F00803082B16D100237B61FB68CB
:102810001B681B687B61FB681B685B687B617B696D
:10282000F86800F01DF8FB6808225A64FB68002273
:1028300083F8402001230FE0FB681B681A68BB681F
:102840001340BA689A420CBF01230023DBB21A4638
:10285000FB799A42B4D0002318461837BD4680BD94
:1028600080B495B000AF78607B681B680C337B63E5
:102870007B6B53E8003F3B633B6B23F49073FB643B
:102880007B681B680C33FA6C3A64FB63F96B3A6C37
:1028900041E80023BB63BB6B002BE5D17B681B6861
:1028A00014333B623B6A53E8003FFB61FB6923F052
:1028B0000103BB647B681B681433BA6CFA62BB62A9
:1028C000B96AFA6A41E800237B627B6A002BE5D192
:1028D0007B681B6B012B19D17B681B680C33FB6079
:1028E000FB6853E8003FBB60BB6823F010037B64C8
:1028F0007B681B680C337A6CBA617B617969BA6951
:1029000041E800233B613B69002BE5D17B68202235
:1029100083F842207B6800221A6300BF5437BD460B
:102920005DF8047B704700002DE9B04FC0B000AFE8
:10293000C7F8F400D7F8F4301B681B6923F4405043
:10294000D7F8F430D968D7F8F4301A6840EA0103B0
:102950001361D7F8F4309A68D7F8F4301B691A433A
:10296000D7F8F4305B691A43D7F8F430DB691343C6
:10297000C7F8F830D7F8F4301B68DB6823F4164149
:1029800021F00C01D7F8F4301A68D7F8F8300B436F
:10299000D360D7F8F4301B685B6923F44070D7F834
:1029A000F4309969D7F8F4301A6840EA01035361AA
:1029B000D7F8F4301A688F4B9A4205D0D7F8F43024
:1029C0001A688D4B9A4204D1FFF702FEC7F8FC004B
:1029D00003E0FFF7E9FDC7F8FC00D7F8F430DB6946
:1029E000B3F5004F40F00C81D7F8FC300022C7F857
:1029F000E830C7F8EC20D7E93A4522462B46911833
:102A0000B9655B41FB65D7E91623214612EB010846
:102A1000294643EB01094FF000024FF000034FEA53
:102A2000C90343EA58734FEAC802904699462346C1
:102A300018EB0303C7F8E0302B4649EB0303C7F854
:102A4000E430D7F8F4305B680022C7F8D830C7F814
:102A5000DC20D7E936120B46DB183B65134642EB08
:102A600003037B65D7E91423D7E93801FDF708FC98
:102A700002460B46614BA3FB02235B091C01D7F8FE
:102A8000FC300022C7F8D030C7F8D420D7E9348909
:102A900042464B469118B9645B41FB64D7E9122367
:102AA000414612EB010A494643EB010B4FF000028D
:102AB0004FF000034FEACB0343EA5A734FEACA02CE
:102AC00092469B4643461AEB0303C7F8C8304B4671
:102AD0004BEB0303C7F8CC30D7F8F4305B68002227
:102AE000C7F8C030C7F8C420D7E930120B46DB184E
:102AF0003B64134642EB03037B64D7E91023D7E919
:102B00003201FDF7BDFB02460B4611463B4BA3FBD2
:102B100001235B09642202FB03F3CB1ADB0003F100
:102B20003202364BA3FB02235B095B0003F4F8730C
:102B30001C44D7F8FC300022C7F8B830C7F8BC20D6
:102B4000D7E92E8942464B469118B9635B41FB6336
:102B5000D7E90E2341465118396349464B417B63FF
:102B60004FF000024FF00003D7E90CAB5946CB0001
:102B7000514643EA51735146CA001046194603466E
:102B800042469B18C7F8B0304B460A4642EB030357
:102B9000C7F8B430D7F8F4305B680022C7F8A83023
:102BA000C7F8AC20D7E92A120B46DB18BB621346E4
:102BB00042EB0303FB62D7E90A23D7E92C01FDF7B7
:102BC0005FFB02460B460D4BA3FB02135B0964211E
:102BD00001FB03F3D31ADB003233084AA2FB0323C1
:102BE0005B0903F00702D7F8F4301B6822449A60AF
:102BF00006E100BF00100140001401401F85EB51A9
:102C0000D7F8FC300022C7F8A030C7F8A420D7E9D5
:102C1000288942464B46911839625B417B62D7E96D
:102C2000082341465418494643EB01054FF0000282
:102C30004FF00003EB0043EA5473E20014461D46D4
:102C40004346E318C7F898304B4645EB0303C7F8F3
:102C50009C30D7F8F4305B680022C7F89030C7F892
:102C600094204FF000024FF00003D7E92445294695
:102C70008B00214643EA917321468A00D7E9260159
:102C8000FDF7FEFA02460B46604BA3FB02235B09ED
:102C90001C01D7F8FC300022C7F88830C7F88C2018
:102CA000D7E9228942464B469118B9615B41FB61E5
:102CB000D7E9062341465118396149464B417B61AA
:102CC0004FF000024FF00003D7E904AB5946CB00A8
:102CD000514643EA51735146CA001046194603460D
:102CE00042469B18C7F880304B460A4642EB030326
:102CF000C7F88430D7F8F4305B680022BB67FA6706
:102D00004FF000024FF00003D7E91E8949468B00BF
:102D1000414643EA917341468A00D7E92001FDF715
:102D2000AFFA02460B461146384BA3FB01235B0961
:102D3000642202FB03F3CB1A1B013233334AA2FB9A
:102D400003235B0903F0F0031C44D7F8FC30002296
:102D50003B677A67D7E91C8942464B469118B960B0
:102D60005B41FB60D7E9022341465118396049466F
:102D70004B417B604FF000024FF00003D7E900ABFE
:102D80005946CB00514643EA51735146CA0010469A
:102D90001946034642469B18BB664B460A4642EB21
:102DA0000303FB66D7F8F4305B6800223B667A6663
:102DB0004FF000024FF00003D7E9188949468B0015
:102DC000414643EA917341468A00D7E91A01FDF76B
:102DD00057FA02460B460D4BA3FB02135B09642115
:102DE00001FB03F3D31A1B013233084AA2FB03236E
:102DF0005B0903F00F02D7F8F4301B6822449A6095
:102E000000BF07F58077BD46BDE8B08F1F85EB5149
:102E10000EB400B59CB01DAB029006906FF000415F
:102E2000094807910491094953F8042B059100685A
:102E3000019302A900F094F9029B00221A701CB0C1
:102E40005DF804EB03B070470C0000200802FFFFA0
:102E500002440346934200D1704703F8011BF9E78F
:102E6000014B1868704700BF0C00002070B50D4D75
:102E70000D4C641BA4100026A64209D10B4D0C4C2E
:102E800000F066FC641BA4100026A64205D170BDAC
:102E900055F8043B98470136EEE755F8043B984750
:102EA0000136F2E7D8370008D8370008D8370008CD
:102EB000DC3700087047704738B50546002941D017
:102EC00051F8043C0C1F002BB8BFE41800F0E0F8E8
:102ED0001D4A136833B9636014602846BDE8384062
:102EE00000F0DCB8A34208D9206821188B4201BF4A
:102EF00019685B6809182160EDE71A465B680BB139
:102F0000A342FAD911685018A0420BD1206801449D
:102F1000501883421160E0D118685B685360084420
:102F20001060DAE702D90C232B60D6E7206821185D
:102F30008B4204BF19685B68636004BF0918216095
:102F40005460CAE738BD00BF6002002070B50F4E64
:102F50000C463168054611B900F0A6FB30602146E9
:102F6000284600F0A1FB431C03D14FF0FF3420465C
:102F700070BDC41C24F00304A042F8D0211A2846D6
:102F800000F092FB0130F2D1EFE700BF5C020020BD
:102F90002DE9F843CD1C25F0030508350C2D38BF6D
:102FA0000C25002D064601DBA94204D90C23336011
:102FB0000020BDE8F883DFF8D48000F069F8D8F885
:102FC00000301C4644BB29463046FFF7BFFF431C78
:102FD000044658D1D8F800402746002F43D1002C92
:102FE0004BD023683946304604EB030900F05CFB04
:102FF000814542D121686D1A29463046FFF7A6FF68
:1030000001303AD023682B442360D8F800305A6846
:1030100062BBC8F800700FE02268521B20D40B2A54
:1030200017D96119A342256018BF5960636808BFAA
:10303000C8F8001062514B60304600F02FF804F1E0
:103040000B00231D20F00700C21A1CBF1B1AA3503F
:10305000AFE76268A3420CBFC8F800205A60EBE7F4
:1030600023466468AEE73C467F68B6E71A465B686D
:10307000A342FBD100235360DEE70C2333603046CC
:1030800000F00CF894E70560D6E700BF600200206E
:103090000148FFF70FBF00BF580200200148FFF7AB
:1030A0000ABF00BF580200202DE9F0478E681F4676
:1030B000BE420B6882460C4690462DD8B1F90C20D2
:1030C00012F4906F26D06569096905EB4505A3EBFD
:1030D000010905EBD5757B1C4B446D109D4238BF33
:1030E0001D46530527D52946FFF752FF064660B314
:1030F00021694A4600F0E8FAA38923F4906343F07B
:103100008003A381266165614E44A5EB0905266015
:10311000A5603E46BE4200D93E4620683246414642
:1031200000F0A8FAA3689B1BA360236833442360C4
:103130000020BDE8F0872A4600F0D4FA06460028B1
:10314000E0D121695046FFF7B7FE0C23CAF80030E2
:10315000A38943F04003A3814FF0FF30E9E700006B
:103160002DE9F04F98468B891B069DB007460D460A
:10317000144610D50B6973B94021FFF709FF286089
:10318000286130B90C233B604FF0FF301DB0BDE823
:10319000F08F40236B610023099320238DF82930A1
:1031A000CDF80C803023DFF89C818DF82A304FF069
:1031B000010923469A4613F8012B0AB1252AF9D1B1
:1031C000BAEB040B0BD05B46224629463846FFF784
:1031D0006BFF013000F0A780099A5A4409929AF8CF
:1031E0000030002B00F09F8000234FF0FF32CDE92C
:1031F00005230AF1010A049307938DF853301A93BB
:103200005446052214F8011B4E48FCF7E9FF049AC6
:10321000D8B9D00644BF20238DF85330110744BFDE
:103220002B238DF853309AF800302A2B15D0079AAB
:10323000544600204FF00A0C214611F8013B303B68
:10324000092B4BD9B0B1079214E0A0EB080309FA9F
:1032500003F313430493A246D2E7039B191D1B6893
:103260000391002BBBBF5B4242F00202079307931E
:10327000B8BF049223782E2B0AD163782A2B32D13F
:10328000039B1A1D1B68039243EAE3730234059300
:10329000DFF8C0A0217803225046FCF7A1FF38B127
:1032A000049BA0EB0A0040228240134301340493A4
:1032B00014F8011B24488DF828100622FCF790FF13
:1032C000002836D0214B1BBB039B073323F0070399
:1032D00008330393099B334409936AE70CFB0232DA
:1032E0000C460120A8E700230134059319464FF04E
:1032F0000A0C204610F8012B303A092A03D9002B7A
:10330000C6D00591C4E70CFB012104460123F0E778
:1033100003AB00932A460E4B04A93846AFF3008056
:10332000421C0646D6D1AB895B063FF52DAF099806
:103330002CE703AB00932A46054B04A9384600F05E
:1033400079F8EDE79C370008A63700080000000078
:10335000A9300008A23700082DE9F0471646984624
:103360008A680B69DDF820909342B8BF134633603A
:1033700091F8432007460C460AB1013333602368B5
:10338000990642BF336802333360256815F006059D
:1033900006D104F1190AE36832689B1AAB4226DCB5
:1033A00094F843302268003B18BF012392062BD4C7
:1033B00004F1430241463846C84701301ED0236815
:1033C000226903F00603042B02BFE5683368ED1A97
:1033D000A3680CBF25EAE57500259342C4BF9B1A7C
:1033E000ED1800261A34B5421AD1002008E0012356
:1033F000524641463846C847013003D14FF0FF30AE
:10340000BDE8F0870135C6E7E1185A1C302081F885
:103410004300224494F8451082F843100233C7E772
:103420000123224641463846C8470130E6D00136DE
:10343000D9E700002DE9FF470F7E0C9E782F9146BB
:1034400080460C469A4601F1430207D8622F0AD8FB
:10345000002F00F0D280582F00F0B98004F142060E
:1034600084F842703AE0A7F16303152BF6D801A166
:1034700051F823F0CD340008E13400085D34000831
:103480005D3400085D3400085D340008E134000854
:103490005D3400085D3400085D3400085D340008C8
:1034A000E13500080B3500089B3500085D34000845
:1034B0005D340008033600085D3400080B35000851
:1034C0005D3400085D340008A335000833681A1D18
:1034D0001B68326004F1420684F8423001239DE00B
:1034E00033682068191D3160060601D51D6803E0A8
:1034F0004506FBD5B3F90050002D03DA2D236D42AC
:1035000084F8433059480A2311E0216833680806DB
:1035100053F8045B02D4490648BFADB26F2F53483D
:10352000336014BF0A230823002184F8431066681F
:10353000A660002EA2BF216821F0040121600DB910
:10354000002E4BD01646B5FBF3F103FB1157C75DB8
:1035500006F8017D2F46BB420D46F4D9082B0BD14E
:103560002368DF0708D5236961689942DEBF3023ED
:1035700006F8013C06F1FF36921B2261CDF800A04F
:103580004B4603AA21464046FFF7E6FE01304AD1EA
:103590004FF0FF3004B0BDE8F087236843F020030C
:1035A00023603348782784F84570236831681F0604
:1035B00051F8045B02D45F0648BFADB23160D90751
:1035C00044BF43F0200323601DB11023ACE727481C
:1035D000E9E7236823F020032360F6E71646BDE7FA
:1035E000336825686169181D30602E061B6801D597
:1035F000196002E06806FBD5198000232361164696
:10360000BCE733681A1D32601E68626800213046CC
:10361000FCF7E6FD08B1801B60606368236100234E
:1036200084F84330AAE72369324649464046D047EA
:103630000130ADD023689B0713D4E068039B984208
:10364000B8BF1846A6E70123324649464046D04750
:1036500001309DD00135E36803995B1AAB42F2DC7F
:10366000EBE7002504F11906F5E700BFAD370008C8
:10367000BE370008884210B501EB020402D984422B
:10368000234607D8431EA14208D011F8012B03F8A6
:10369000012FF8E7024401468A4200D110BD13F819
:1036A000014D02F8014DF7E738B5064D00230446F9
:1036B00008462B60FDF772F9431C02D12B6803B159
:1036C000236038BD540200200A44914200F1FF33C8
:1036D00000D1704710B511F8014B03F8014F91422A
:1036E000F9D110BD2DE9F041804615460C4621B9AF
:1036F000BDE8F0411146FFF74BBC2AB9FFF7DCFBF0
:1037000000242046BDE8F08100F01AF88542064604
:1037100002D8B5EB500FF4D829464046FFF738FCE5
:1037200007460028ECD0B5422A46214628BF32463B
:10373000FFF7CAFF21464046FFF7BEFB3C46E0E7E5
:1037400051F8043C181F002BBCBF0B58C018704721
:10375000F8B500BFF8BC08BC9E467047F8B500BF7E
:08376000F8BC08BC9E4670474E
:103768004D5055363035302057484F5F414D5F49F1
:103778003A20307825580D0A0000000000000000AB
:103788000000000001020304060708090000000009
:1037980001020304232D302B2000686C4C00656661
:1037A800674546470030313233343536373839418A
:1037B80042434445460030313233343536373839A0
:0837C8006162636465660000A4
:0837D00000CAFF7F01000000A8
:0437D800B50100082F
:0437DC00910100084F
:1037E0000024F40010000000010000001000002080
:1037F000000000001C01002084010020EC010020DA
:1038000000000000000000000000000000000000B8
:1038100000000000000000000000000000000000A8
:103820000000000000000000000000000000000098
:0C3830000000000000000000000000008C
:0400000508000A2DB8
:00000001FF
